{
  "contractName": "RegistryContract",
  "abi": [
    {
      "inputs": [
        {
          "name": "_contractAddress",
          "type": "address"
        }
      ],
      "payable": false,
      "stateMutability": "nonpayable",
      "type": "constructor"
    },
    {
      "constant": true,
      "inputs": [],
      "name": "getContracts",
      "outputs": [
        {
          "name": "_contracts",
          "type": "address[]"
        }
      ],
      "payable": false,
      "stateMutability": "view",
      "type": "function"
    },
    {
      "constant": true,
      "inputs": [],
      "name": "getRecoveryContacts",
      "outputs": [
        {
          "name": "_recoveryContacts",
          "type": "address[]"
        }
      ],
      "payable": false,
      "stateMutability": "view",
      "type": "function"
    },
    {
      "constant": false,
      "inputs": [
        {
          "name": "_contractAddress",
          "type": "address"
        }
      ],
      "name": "addContract",
      "outputs": [],
      "payable": false,
      "stateMutability": "nonpayable",
      "type": "function"
    },
    {
      "constant": false,
      "inputs": [
        {
          "name": "index",
          "type": "uint256"
        }
      ],
      "name": "removeContract",
      "outputs": [],
      "payable": false,
      "stateMutability": "nonpayable",
      "type": "function"
    },
    {
      "constant": false,
      "inputs": [
        {
          "name": "_ownerAddress",
          "type": "address"
        }
      ],
      "name": "changeOwner",
      "outputs": [],
      "payable": false,
      "stateMutability": "nonpayable",
      "type": "function"
    },
    {
      "constant": false,
      "inputs": [
        {
          "name": "_contactAddress",
          "type": "address"
        }
      ],
      "name": "addRecoveryContact",
      "outputs": [],
      "payable": false,
      "stateMutability": "nonpayable",
      "type": "function"
    },
    {
      "constant": false,
      "inputs": [
        {
          "name": "index",
          "type": "uint256"
        }
      ],
      "name": "removeRecoveryContact",
      "outputs": [],
      "payable": false,
      "stateMutability": "nonpayable",
      "type": "function"
    }
  ],
  "bytecode": "0x608060405234801561001057600080fd5b50604051610c6d380380610c6d8339818101604052602081101561003357600080fd5b8101908080519060200190929190505050336000806101000a81548173ffffffffffffffffffffffffffffffffffffffff021916908373ffffffffffffffffffffffffffffffffffffffff160217905550600073ffffffffffffffffffffffffffffffffffffffff168173ffffffffffffffffffffffffffffffffffffffff161461011f5760018190806001815401808255809150509060018203906000526020600020016000909192909190916101000a81548173ffffffffffffffffffffffffffffffffffffffff021916908373ffffffffffffffffffffffffffffffffffffffff160217905550505b50610b3e8061012f6000396000f3fe608060405234801561001057600080fd5b506004361061009a576000357c010000000000000000000000000000000000000000000000000000000090048063a6f9dae111610078578063a6f9dae114610155578063c3a2a93a14610199578063e41451f1146101f8578063fb3ffae3146102265761009a565b80632c8d20e61461009f5780635f539d69146100e35780637cca3b0614610127575b600080fd5b6100e1600480360360208110156100b557600080fd5b81019080803573ffffffffffffffffffffffffffffffffffffffff169060200190929190505050610285565b005b610125600480360360208110156100f957600080fd5b81019080803573ffffffffffffffffffffffffffffffffffffffff169060200190929190505050610379565b005b6101536004803603602081101561013d57600080fd5b810190808035906020019092919050505061046d565b005b6101976004803603602081101561016b57600080fd5b81019080803573ffffffffffffffffffffffffffffffffffffffff1690602001909291905050506105a0565b005b6101a16106a5565b6040518080602001828103825283818151815260200191508051906020019060200280838360005b838110156101e45780820151818401526020810190506101c9565b505050509050019250505060405180910390f35b6102246004803603602081101561020e57600080fd5b810190808035906020019092919050505061089f565b005b61022e6109d4565b6040518080602001828103825283818151815260200191508051906020019060200280838360005b83811015610271578082015181840152602081019050610256565b505050509050019250505060405180910390f35b6000809054906101000a900473ffffffffffffffffffffffffffffffffffffffff1673ffffffffffffffffffffffffffffffffffffffff163373ffffffffffffffffffffffffffffffffffffffff16141561037657600073ffffffffffffffffffffffffffffffffffffffff168173ffffffffffffffffffffffffffffffffffffffff16146103755760028190806001815401808255809150509060018203906000526020600020016000909192909190916101000a81548173ffffffffffffffffffffffffffffffffffffffff021916908373ffffffffffffffffffffffffffffffffffffffff160217905550505b5b50565b6000809054906101000a900473ffffffffffffffffffffffffffffffffffffffff1673ffffffffffffffffffffffffffffffffffffffff163373ffffffffffffffffffffffffffffffffffffffff16141561046a57600073ffffffffffffffffffffffffffffffffffffffff168173ffffffffffffffffffffffffffffffffffffffff16146104695760018190806001815401808255809150509060018203906000526020600020016000909192909190916101000a81548173ffffffffffffffffffffffffffffffffffffffff021916908373ffffffffffffffffffffffffffffffffffffffff160217905550505b5b50565b6000809054906101000a900473ffffffffffffffffffffffffffffffffffffffff1673ffffffffffffffffffffffffffffffffffffffff163373ffffffffffffffffffffffffffffffffffffffff16141561059d5760018054905081106104d35761059c565b60008190505b6001808054905003811015610584576001808201815481106104f757fe5b9060005260206000200160009054906101000a900473ffffffffffffffffffffffffffffffffffffffff166001828154811061052f57fe5b9060005260206000200160006101000a81548173ffffffffffffffffffffffffffffffffffffffff021916908373ffffffffffffffffffffffffffffffffffffffff16021790555080806001019150506104d9565b50600180548091906001900361059a9190610ab8565b505b5b50565b60008090505b6002805490508110156106a1573373ffffffffffffffffffffffffffffffffffffffff16600282815481106105d757fe5b9060005260206000200160009054906101000a900473ffffffffffffffffffffffffffffffffffffffff1673ffffffffffffffffffffffffffffffffffffffff16141561069457600073ffffffffffffffffffffffffffffffffffffffff168273ffffffffffffffffffffffffffffffffffffffff161461069357816000806101000a81548173ffffffffffffffffffffffffffffffffffffffff021916908373ffffffffffffffffffffffffffffffffffffffff1602179055505b5b80806001019150506105a6565b5050565b60606000809054906101000a900473ffffffffffffffffffffffffffffffffffffffff1673ffffffffffffffffffffffffffffffffffffffff163373ffffffffffffffffffffffffffffffffffffffff16141561078657600180548060200260200160405190810160405280929190818152602001828054801561077e57602002820191906000526020600020905b8160009054906101000a900473ffffffffffffffffffffffffffffffffffffffff1673ffffffffffffffffffffffffffffffffffffffff1681526020019060010190808311610734575b505050505090505b60008090505b60028054905081101561089b573373ffffffffffffffffffffffffffffffffffffffff16600282815481106107bd57fe5b9060005260206000200160009054906101000a900473ffffffffffffffffffffffffffffffffffffffff1673ffffffffffffffffffffffffffffffffffffffff16141561088e57600180548060200260200160405190810160405280929190818152602001828054801561088657602002820191906000526020600020905b8160009054906101000a900473ffffffffffffffffffffffffffffffffffffffff1673ffffffffffffffffffffffffffffffffffffffff168152602001906001019080831161083c575b505050505091505b808060010191505061078c565b5090565b6000809054906101000a900473ffffffffffffffffffffffffffffffffffffffff1673ffffffffffffffffffffffffffffffffffffffff163373ffffffffffffffffffffffffffffffffffffffff1614156109d1576002805490508110610905576109d0565b60008190505b6001600280549050038110156109b8576002600182018154811061092b57fe5b9060005260206000200160009054906101000a900473ffffffffffffffffffffffffffffffffffffffff166002828154811061096357fe5b9060005260206000200160006101000a81548173ffffffffffffffffffffffffffffffffffffffff021916908373ffffffffffffffffffffffffffffffffffffffff160217905550808060010191505061090b565b5060028054809190600190036109ce9190610ab8565b505b5b50565b60606000809054906101000a900473ffffffffffffffffffffffffffffffffffffffff1673ffffffffffffffffffffffffffffffffffffffff163373ffffffffffffffffffffffffffffffffffffffff161415610ab5576002805480602002602001604051908101604052809291908181526020018280548015610aad57602002820191906000526020600020905b8160009054906101000a900473ffffffffffffffffffffffffffffffffffffffff1673ffffffffffffffffffffffffffffffffffffffff1681526020019060010190808311610a63575b505050505090505b90565b815481835581811115610adf57818360005260206000209182019101610ade9190610ae4565b5b505050565b610b0691905b80821115610b02576000816000905550600101610aea565b5090565b9056fea265627a7a72305820ac7536bcb01faa9521b78deecab2d801e846b8135d093e516a2a06c6765a20b764736f6c63430005090032",
  "source": "pragma solidity ^0.5.9;\n\ncontract RegistryContract {\n\n    address owner;\n    address[] contracts;\n    address[] recoveryContacts;\n\n    modifier onlyOwner(){\n        if (msg.sender == owner) _;\n    }\n    modifier onlyRecoveryContacts(){\n        for(uint i = 0; i < recoveryContacts.length; i++)\n            if(recoveryContacts[i] == msg.sender) _;\n    }\n    modifier onlyOwnerOrRecoveryContacts(){\n        if (msg.sender == owner) _;\n        for(uint i = 0; i < recoveryContacts.length; i++)\n            if(recoveryContacts[i] == msg.sender) _;\n    }\n\n    constructor(address _contractAddress) public {\n        owner = msg.sender;\n        if (_contractAddress != address(0)){\n            contracts.push(_contractAddress);\n        }\n    }\n\n    function getContracts() public view onlyOwnerOrRecoveryContacts returns (address[] memory _contracts){\n        _contracts = contracts;\n    }\n\n    function getRecoveryContacts() public view onlyOwner returns (address[] memory _recoveryContacts){\n        _recoveryContacts = recoveryContacts;\n    }\n\n    function addContract(address _contractAddress) public onlyOwner {\n        if (_contractAddress != address(0)){\n            contracts.push(_contractAddress);\n        }\n    }\n\n    function removeContract(uint index) public onlyOwner {\n        if (index >= contracts.length) return;\n\n        for (uint i = index; i<contracts.length-1; i++){\n            contracts[i] = contracts[i+1];\n        }\n        contracts.length--;\n    }\n\n    function changeOwner(address _ownerAddress) public onlyRecoveryContacts {\n        if (_ownerAddress != address(0)){\n            owner = _ownerAddress;\n        }\n    }\n\n    function addRecoveryContact(address _contactAddress) public onlyOwner {\n        if (_contactAddress != address(0)){\n            recoveryContacts.push(_contactAddress);\n        }\n    }\n\n    function removeRecoveryContact(uint index) public onlyOwner {\n        if (index >= recoveryContacts.length) return;\n\n        for (uint i = index; i<recoveryContacts.length-1; i++){\n            recoveryContacts[i] = recoveryContacts[i+1];\n        }\n        recoveryContacts.length--;\n    }\n}",
  "sourcePath": "/home/bsmrdelj/Dokumenti/Datoteke za šolo/FOG/ssi_app/contracts/RegistryContract.sol",
  "compiler": {
    "name": "solc",
    "version": "0.5.9+commit.e560f70d.Emscripten.clang"
  },
  "schemaVersion": "3.0.1",
  "updatedAt": "2021-05-10T17:03:02.935Z",
  "devdoc": {
    "methods": {}
  },
  "userdoc": {
    "methods": {}
  }
}