{
  "contractName": "IdentityContract",
  "abi": [
    {
      "inputs": [],
      "payable": false,
      "stateMutability": "nonpayable",
      "type": "constructor"
    },
    {
      "constant": false,
      "inputs": [
        {
          "name": "_ipfs_hash",
          "type": "string"
        }
      ],
      "name": "setIPFSHash",
      "outputs": [],
      "payable": false,
      "stateMutability": "nonpayable",
      "type": "function"
    },
    {
      "constant": false,
      "inputs": [
        {
          "name": "_contactAddress",
          "type": "address"
        }
      ],
      "name": "addRecoveryContact",
      "outputs": [],
      "payable": false,
      "stateMutability": "nonpayable",
      "type": "function"
    },
    {
      "constant": false,
      "inputs": [
        {
          "name": "index",
          "type": "uint256"
        }
      ],
      "name": "removeRecoveryContact",
      "outputs": [],
      "payable": false,
      "stateMutability": "nonpayable",
      "type": "function"
    },
    {
      "constant": false,
      "inputs": [
        {
          "name": "_verifierAddress",
          "type": "address"
        }
      ],
      "name": "setVerifier",
      "outputs": [],
      "payable": false,
      "stateMutability": "nonpayable",
      "type": "function"
    },
    {
      "constant": false,
      "inputs": [
        {
          "name": "_verified",
          "type": "bool"
        }
      ],
      "name": "verifyContract",
      "outputs": [],
      "payable": false,
      "stateMutability": "nonpayable",
      "type": "function"
    },
    {
      "constant": false,
      "inputs": [
        {
          "name": "_serviceAddress",
          "type": "address"
        }
      ],
      "name": "addService",
      "outputs": [],
      "payable": false,
      "stateMutability": "nonpayable",
      "type": "function"
    },
    {
      "constant": false,
      "inputs": [
        {
          "name": "index",
          "type": "uint256"
        }
      ],
      "name": "removeService",
      "outputs": [],
      "payable": false,
      "stateMutability": "nonpayable",
      "type": "function"
    },
    {
      "constant": false,
      "inputs": [
        {
          "name": "_ownerAddress",
          "type": "address"
        }
      ],
      "name": "changeOwner",
      "outputs": [],
      "payable": false,
      "stateMutability": "nonpayable",
      "type": "function"
    },
    {
      "constant": true,
      "inputs": [],
      "name": "getDetails",
      "outputs": [
        {
          "name": "_owner",
          "type": "address"
        },
        {
          "name": "_ipfs_hash",
          "type": "string"
        },
        {
          "name": "_recoveryContacts",
          "type": "address[]"
        },
        {
          "name": "_verifier",
          "type": "address"
        },
        {
          "name": "_services",
          "type": "address[]"
        },
        {
          "name": "_verified",
          "type": "bool"
        },
        {
          "name": "_reputationRankings",
          "type": "uint256[]"
        }
      ],
      "payable": false,
      "stateMutability": "view",
      "type": "function"
    },
    {
      "constant": false,
      "inputs": [
        {
          "name": "ranking",
          "type": "uint256"
        }
      ],
      "name": "addReputationRanking",
      "outputs": [],
      "payable": false,
      "stateMutability": "nonpayable",
      "type": "function"
    }
  ],
  "bytecode": "0x608060405234801561001057600080fd5b50336000806101000a81548173ffffffffffffffffffffffffffffffffffffffff021916908373ffffffffffffffffffffffffffffffffffffffff1602179055506000600560006101000a81548160ff0219169083151502179055506113e88061007b6000396000f3fe608060405234801561001057600080fd5b50600436106100bb576000357c0100000000000000000000000000000000000000000000000000000000900480639f59001a116100835780639f59001a146101e8578063a6f9dae114610218578063b8a76f541461025c578063e41451f114610317578063fbbf93a014610345576100bb565b80632c8d20e6146100c05780633c83ad9d146101045780635372a9ce146101325780635437988d146101765780639b66b139146101ba575b600080fd5b610102600480360360208110156100d657600080fd5b81019080803573ffffffffffffffffffffffffffffffffffffffff169060200190929190505050610511565b005b6101306004803603602081101561011a57600080fd5b8101908080359060200190929190505050610605565b005b6101746004803603602081101561014857600080fd5b81019080803573ffffffffffffffffffffffffffffffffffffffff1690602001909291905050506106c1565b005b6101b86004803603602081101561018c57600080fd5b81019080803573ffffffffffffffffffffffffffffffffffffffff1690602001909291905050506107b5565b005b6101e6600480360360208110156101d057600080fd5b8101908080359060200190929190505050610884565b005b610216600480360360208110156101fe57600080fd5b810190808035151590602001909291905050506109b9565b005b61025a6004803603602081101561022e57600080fd5b81019080803573ffffffffffffffffffffffffffffffffffffffff169060200190929190505050610a2d565b005b6103156004803603602081101561027257600080fd5b810190808035906020019064010000000081111561028f57600080fd5b8201836020820111156102a157600080fd5b803590602001918460018302840111640100000000831117156102c357600080fd5b91908080601f016020809104026020016040519081016040528093929190818152602001838380828437600081840152601f19601f820116905080830192505050505050509192919290505050610b32565b005b6103436004803603602081101561032d57600080fd5b8101908080359060200190929190505050610ba2565b005b61034d610cd7565b604051808873ffffffffffffffffffffffffffffffffffffffff1673ffffffffffffffffffffffffffffffffffffffff16815260200180602001806020018773ffffffffffffffffffffffffffffffffffffffff1673ffffffffffffffffffffffffffffffffffffffff16815260200180602001861515151581526020018060200185810385528b818151815260200191508051906020019080838360005b838110156104075780820151818401526020810190506103ec565b50505050905090810190601f1680156104345780820380516001836020036101000a031916815260200191505b5085810384528a818151815260200191508051906020019060200280838360005b83811015610470578082015181840152602081019050610455565b50505050905001858103835288818151815260200191508051906020019060200280838360005b838110156104b2578082015181840152602081019050610497565b50505050905001858103825286818151815260200191508051906020019060200280838360005b838110156104f45780820151818401526020810190506104d9565b505050509050019b50505050505050505050505060405180910390f35b6000809054906101000a900473ffffffffffffffffffffffffffffffffffffffff1673ffffffffffffffffffffffffffffffffffffffff163373ffffffffffffffffffffffffffffffffffffffff16141561060257600073ffffffffffffffffffffffffffffffffffffffff168173ffffffffffffffffffffffffffffffffffffffff16146106015760028190806001815401808255809150509060018203906000526020600020016000909192909190916101000a81548173ffffffffffffffffffffffffffffffffffffffff021916908373ffffffffffffffffffffffffffffffffffffffff160217905550505b5b50565b60008090505b6004805490508110156106bd573373ffffffffffffffffffffffffffffffffffffffff166004828154811061063c57fe5b9060005260206000200160009054906101000a900473ffffffffffffffffffffffffffffffffffffffff1673ffffffffffffffffffffffffffffffffffffffff1614156106b05760068290806001815401808255809150509060018203906000526020600020016000909192909190915055505b808060010191505061060b565b5050565b6000809054906101000a900473ffffffffffffffffffffffffffffffffffffffff1673ffffffffffffffffffffffffffffffffffffffff163373ffffffffffffffffffffffffffffffffffffffff1614156107b257600073ffffffffffffffffffffffffffffffffffffffff168173ffffffffffffffffffffffffffffffffffffffff16146107b15760048190806001815401808255809150509060018203906000526020600020016000909192909190916101000a81548173ffffffffffffffffffffffffffffffffffffffff021916908373ffffffffffffffffffffffffffffffffffffffff160217905550505b5b50565b6000809054906101000a900473ffffffffffffffffffffffffffffffffffffffff1673ffffffffffffffffffffffffffffffffffffffff163373ffffffffffffffffffffffffffffffffffffffff16141561088157600073ffffffffffffffffffffffffffffffffffffffff168173ffffffffffffffffffffffffffffffffffffffff16146108805780600360006101000a81548173ffffffffffffffffffffffffffffffffffffffff021916908373ffffffffffffffffffffffffffffffffffffffff1602179055505b5b50565b6000809054906101000a900473ffffffffffffffffffffffffffffffffffffffff1673ffffffffffffffffffffffffffffffffffffffff163373ffffffffffffffffffffffffffffffffffffffff1614156109b65760048054905081106108ea576109b5565b60008190505b60016004805490500381101561099d576004600182018154811061091057fe5b9060005260206000200160009054906101000a900473ffffffffffffffffffffffffffffffffffffffff166004828154811061094857fe5b9060005260206000200160006101000a81548173ffffffffffffffffffffffffffffffffffffffff021916908373ffffffffffffffffffffffffffffffffffffffff16021790555080806001019150506108f0565b5060048054809190600190036109b391906112e2565b505b5b50565b600360009054906101000a900473ffffffffffffffffffffffffffffffffffffffff1673ffffffffffffffffffffffffffffffffffffffff163373ffffffffffffffffffffffffffffffffffffffff161415610a2a5780600560006101000a81548160ff0219169083151502179055505b50565b60008090505b600280549050811015610b2e573373ffffffffffffffffffffffffffffffffffffffff1660028281548110610a6457fe5b9060005260206000200160009054906101000a900473ffffffffffffffffffffffffffffffffffffffff1673ffffffffffffffffffffffffffffffffffffffff161415610b2157600073ffffffffffffffffffffffffffffffffffffffff168273ffffffffffffffffffffffffffffffffffffffff1614610b2057816000806101000a81548173ffffffffffffffffffffffffffffffffffffffff021916908373ffffffffffffffffffffffffffffffffffffffff1602179055505b5b8080600101915050610a33565b5050565b6000809054906101000a900473ffffffffffffffffffffffffffffffffffffffff1673ffffffffffffffffffffffffffffffffffffffff163373ffffffffffffffffffffffffffffffffffffffff161415610b9f578060019080519060200190610b9d92919061130e565b505b50565b6000809054906101000a900473ffffffffffffffffffffffffffffffffffffffff1673ffffffffffffffffffffffffffffffffffffffff163373ffffffffffffffffffffffffffffffffffffffff161415610cd4576002805490508110610c0857610cd3565b60008190505b600160028054905003811015610cbb5760026001820181548110610c2e57fe5b9060005260206000200160009054906101000a900473ffffffffffffffffffffffffffffffffffffffff1660028281548110610c6657fe5b9060005260206000200160006101000a81548173ffffffffffffffffffffffffffffffffffffffff021916908373ffffffffffffffffffffffffffffffffffffffff1602179055508080600101915050610c0e565b506002805480919060019003610cd191906112e2565b505b5b50565b600060608060006060600060606000809054906101000a900473ffffffffffffffffffffffffffffffffffffffff1673ffffffffffffffffffffffffffffffffffffffff163373ffffffffffffffffffffffffffffffffffffffff161480610d8c5750600360009054906101000a900473ffffffffffffffffffffffffffffffffffffffff1673ffffffffffffffffffffffffffffffffffffffff163373ffffffffffffffffffffffffffffffffffffffff16145b15610fef576000809054906101000a900473ffffffffffffffffffffffffffffffffffffffff16965060018054600181600116156101000203166002900480601f016020809104026020016040519081016040528092919081815260200182805460018160011615610100020316600290048015610e4b5780601f10610e2057610100808354040283529160200191610e4b565b820191906000526020600020905b815481529060010190602001808311610e2e57829003601f168201915b505050505095506002805480602002602001604051908101604052809291908181526020018280548015610ed457602002820191906000526020600020905b8160009054906101000a900473ffffffffffffffffffffffffffffffffffffffff1673ffffffffffffffffffffffffffffffffffffffff1681526020019060010190808311610e8a575b50505050509450600360009054906101000a900473ffffffffffffffffffffffffffffffffffffffff1693506004805480602002602001604051908101604052809291908181526020018280548015610f8257602002820191906000526020600020905b8160009054906101000a900473ffffffffffffffffffffffffffffffffffffffff1673ffffffffffffffffffffffffffffffffffffffff1681526020019060010190808311610f38575b50505050509250600560009054906101000a900460ff1691506006805480602002602001604051908101604052809291908181526020018280548015610fe757602002820191906000526020600020905b815481526020019060010190808311610fd3575b505050505090505b60008090505b6004805490508110156112d8573373ffffffffffffffffffffffffffffffffffffffff166004828154811061102657fe5b9060005260206000200160009054906101000a900473ffffffffffffffffffffffffffffffffffffffff1673ffffffffffffffffffffffffffffffffffffffff1614156112cb576000809054906101000a900473ffffffffffffffffffffffffffffffffffffffff16975060018054600181600116156101000203166002900480601f0160208091040260200160405190810160405280929190818152602001828054600181600116156101000203166002900480156111275780601f106110fc57610100808354040283529160200191611127565b820191906000526020600020905b81548152906001019060200180831161110a57829003601f168201915b5050505050965060028054806020026020016040519081016040528092919081815260200182805480156111b057602002820191906000526020600020905b8160009054906101000a900473ffffffffffffffffffffffffffffffffffffffff1673ffffffffffffffffffffffffffffffffffffffff1681526020019060010190808311611166575b50505050509550600360009054906101000a900473ffffffffffffffffffffffffffffffffffffffff169450600480548060200260200160405190810160405280929190818152602001828054801561125e57602002820191906000526020600020905b8160009054906101000a900473ffffffffffffffffffffffffffffffffffffffff1673ffffffffffffffffffffffffffffffffffffffff1681526020019060010190808311611214575b50505050509350600560009054906101000a900460ff16925060068054806020026020016040519081016040528092919081815260200182805480156112c357602002820191906000526020600020905b8154815260200190600101908083116112af575b505050505091505b8080600101915050610ff5565b5090919293949596565b81548183558181111561130957818360005260206000209182019101611308919061138e565b5b505050565b828054600181600116156101000203166002900490600052602060002090601f016020900481019282601f1061134f57805160ff191683800117855561137d565b8280016001018555821561137d579182015b8281111561137c578251825591602001919060010190611361565b5b50905061138a919061138e565b5090565b6113b091905b808211156113ac576000816000905550600101611394565b5090565b9056fea265627a7a72305820939857a71f4d0b07016b33aaabe163ffdd6772dc21ab4e0cc25d26a68675aff164736f6c63430005090032",
  "source": "pragma solidity ^0.5.9;\n\ncontract IdentityContract {\n\n    address owner; // public key;\n    string ipfs_hash;\n    address[] recoveryContacts;\n    address verifier;\n    address[] services;\n    bool verified;\n    uint[] reputationRankings;\n\n    modifier onlyOwner(){\n        if (msg.sender == owner) _;\n    }\n    modifier onlyVerifier(){\n        if (msg.sender == verifier) _;\n    }\n    modifier onlyOwnerVerifierServices(){\n        if (msg.sender == owner || msg.sender == verifier) _;\n        for(uint i = 0; i < services.length; i++)\n            if(services[i] == msg.sender) _;\n    }\n    modifier onlyRecoveryContacts(){\n        for(uint i = 0; i < recoveryContacts.length; i++)\n            if(recoveryContacts[i] == msg.sender) _;\n    }\n    modifier onlyServices(){\n        for(uint i = 0; i < services.length; i++)\n            if(services[i] == msg.sender) _;\n    }\n    \n    constructor() public {\n        owner = msg.sender;\n        verified = false;\n    }\n\n    function setIPFSHash(string memory _ipfs_hash) public onlyOwner {\n        ipfs_hash = _ipfs_hash;\n    }\n\n    function addRecoveryContact(address _contactAddress) public onlyOwner {\n        if (_contactAddress != address(0)){\n            recoveryContacts.push(_contactAddress);\n        }\n    }\n\n    function removeRecoveryContact(uint index) public onlyOwner {\n        if (index >= recoveryContacts.length) return;\n\n        for (uint i = index; i<recoveryContacts.length-1; i++){\n            recoveryContacts[i] = recoveryContacts[i+1];\n        }\n        recoveryContacts.length--;\n    }\n\n    function setVerifier(address _verifierAddress) public onlyOwner {\n        if (_verifierAddress != address(0)){\n            verifier = _verifierAddress;\n        }\n    }\n\n    function verifyContract(bool _verified) public onlyVerifier {\n        verified = _verified;\n    }\n\n    function addService(address _serviceAddress) public onlyOwner {\n        if (_serviceAddress != address(0)){\n            services.push(_serviceAddress);\n        }\n    }\n\n    function removeService(uint index) public onlyOwner {\n        if (index >= services.length) return;\n\n        for (uint i = index; i<services.length-1; i++){\n            services[i] = services[i+1];\n        }\n        services.length--;\n    }\n\n    function changeOwner(address _ownerAddress) public onlyRecoveryContacts {\n        if (_ownerAddress != address(0)){\n            owner = _ownerAddress;\n        }\n    }\n\n    function getDetails() public view onlyOwnerVerifierServices returns (\n        address _owner, \n        string memory _ipfs_hash,\n        address[] memory _recoveryContacts,\n        address _verifier,\n        address[] memory _services,\n        bool _verified,\n        uint[] memory _reputationRankings\n    ){\n        _owner = owner;\n        _ipfs_hash = ipfs_hash;\n        _recoveryContacts = recoveryContacts;\n        _verifier = verifier;\n        _services = services;\n        _verified = verified;\n        _reputationRankings = reputationRankings;\n    }\n\n    function addReputationRanking(uint ranking) public onlyServices {\n        reputationRankings.push(ranking);\n    }\n}",
  "sourcePath": "/home/bsmrdelj/Dokumenti/Datoteke za šolo/FOG/verifier-backend/contracts/IdentityContract.sol",
  "compiler": {
    "name": "solc",
    "version": "0.5.9+commit.e560f70d.Emscripten.clang"
  },
  "schemaVersion": "3.0.1",
  "updatedAt": "2021-06-01T18:38:10.428Z",
  "devdoc": {
    "methods": {}
  },
  "userdoc": {
    "methods": {}
  }
}